:020000040000FA
:08000000803102288731FA2F3C
:100DFA0021000E148E1423008E1108007A30F6009A
:100E0A007608F30060308731CF278731F7007708FB
:100E1A00FD0008000330F6007608F30060308731E1
:100E2A005B278731F7007708FD00080024001615B4
:100E3A00140C890C0139F00016081F397004031DBF
:100E4A00272F282F1D2F0000080024009501940148
:100E5A009601970194171508F039083895004F3014
:100E6A00920020009111210091112400951608008A
:100E7A008631FD26873187312A278731FD0187315F
:100E8A000F278731873103278731F801F9010130AC
:100E9A00F8070030F93D780A031D572F790A031D18
:100EAA00572F582F4C2F442F80310228F5007508F0
:100EBA0087317A278731003A031D642F652F672F00
:100ECA000030792F730824009100140C890C013921
:100EDA00F40016081F397404031D742F752F6A2F26
:100EEA0087311B27873101300800F2002400140CD7
:100EFA00890C0139F10016081F397104031D862F68
:100F0A00872F7B2F161416188B2F8C2F882F72354C
:100F1A009100140C890C0139F10016081F3971046B
:100F2A00031D982F992F8E2F161F9C2F9D2FA22FAE
:100F3A0087311B2787310030A32F01300800F200C8
:100F4A002400140C890C0139F10016081F397104A8
:100F5A00031DB02FB12FA52F16141618B52FB62FB3
:100F6A00B22F0314720D9100140C890C0139F1008F
:100F7A0016081F397104031DC32FC42FB92F161F5A
:100F8A00C72FC82FCD2F87311B2787310030CE2F8F
:100F9A0001300800F50075088731A4278731003A27
:100FAA00031DD82FD92FDB2F0030F92F24009615D7
:100FBA00140C890C0139F40016081F397404031D36
:100FCA00E72FE82FDD2F1108F40073088600870148
:100FDA007408810096161616161AF42FF52FF12F9B
:100FEA0087311B27873101300800FA01FB01FC0118
:060FFA00200087313D2FAD
:020000040001F9
:04000E0024CFFFDE1E
:00000001FF
