:020000040000FA
:04000000803114280F
:100008007E148031200091190A280B280F28921D90
:100018000E280F2812288031352080317E100900E3
:1000280080311628813197218031F90068308400A9
:1000380081308500443086000030870008308131E7
:1000480070218031F401F501F60120308400003080
:10005800850010308131762180317E10200080317A
:100068009C282000911D39283A288B282400141E2A
:100078003E283F284C2820003C083D040319452809
:1000880046288B283D088A003C080A0080318B28C6
:10009800141D4F285028622820003E083F040319E9
:1000A800562857285F283F088A003E080A008031F2
:1000B800240091008B28240091018B2814196528AD
:1000C80066288B28941A69286A286E281108F30074
:1000D8007308F400941E712872288B2820004008A9
:1000E8004104031978287928852824001108F30089
:1000F8007308F000200041088A0040080A00803197
:100108008B2824001108F3007308F4008B282000C2
:10011800921D8F289028972824001108F30073084F
:10012800F4002000921124001516200091110800F7
:1001380081317C218031603081312421803103304C
:100148002000B0000130B100813188218031E130D8
:100158002000B0000030B10081318E218031403064
:100168002000B0000130B10081318221803144305B
:100178008600003087003430840000308500083065
:100188002000B30016001A00B30BC6280830B300CD
:100198003308B000343081315D21803104302000D3
:1001A800B3003308B00034308131522180318131BD
:1001B80094218031DE28803114280130F000700845
:1001C800F600F201770875020318EB28EC28FC28E2
:1001D800750820004207F0007008860087010108B2
:1001E800F1007108F2000130F0007008F5070129EC
:1001F8007708013EF0007008F500720808007908D9
:10020800031D072908291E297808750203180D29D6
:100218000E2923297008F100750820004307F20011
:10022800720886008701710881000130F1007108A9
:10023800F5072329F9017008F1007108F500080095
:100248002000B000240095019601970194019417AD
:100258001508F039063895001614171517172000D9
:10026800303524009200200092119111210092153E
:100278009115240095160800760803194429452984
:100288004C297508031949294A294C290130F502D6
:100298000130F0007008F900F60108002000B200F3
:1002A8003208B1003108C3003008B1003108F80045
:1002B80008002000B2003208B1003108C20030083E
:1002C800B1003108F7000800003401340234033467
:1002D8000434053406340734FE0012001E00FE0BF9
:1002E80071290034640080010131890B77290034B9
:1002F80021000E148E1423008E11080020003108EE
:10030800BD003008BC00080020003108C1003008DA
:10031800C000080020003108BF003008BE000800F7
:080328000B178B1708000134CC
:020000040001F9
:04000E0024CFFFDE1E
:00000001FF
