:020000040000FA
:04000000803114280F
:100008007E148031200091190A280B280F28921D90
:100018000E280F2812288031352080317E100900E3
:10002800803116288131A5218031F900763084008D
:1000380081308500463086000030870008308131E5
:100048007E218031F401F501F60120308400003072
:10005800850012308131842180317E10200080316A
:100068009C282000911D39283A288B282400141E2A
:100078003E283F284C2820003E083F040319452805
:1000880046288B283F088A003E080A0080318B28C2
:10009800141D4F28502862282000400841040319E5
:1000A800562857285F2841088A0040080A008031EE
:1000B800240091008B28240091018B2814196528AD
:1000C80066288B28941A69286A286E281108F30074
:1000D8007308F400941E712872288B2820004208A7
:1000E8004304031978287928852824001108F30087
:1000F8007308F000200043088A0042080A00803193
:100108008B2824001108F3007308F4008B282000C2
:10011800921D8F289028972824001108F30073084F
:10012800F4002000921124001516200091110800F7
:1001380081318A21803121008E1160308131322154
:10014800803111302000B2000130B3008131962196
:100158008031EF302000B2000030B30081319C21A3
:1001680080314E302000B2000130B300813190213F
:1001780080314630860000308700363084000030F9
:10018800850008302000B50016001A00B50BC828F5
:100198000830B5003508B200363081316B21803126
:1001A80004302000B5003508B200363081316021B6
:1001B80080318131A221803103102000921D031467
:1001C8000318E728EA2820008E15EC2820008E1155
:1001D800E028803114280130F0007008F600F201A0
:1001E800770875020318F928FA280A2975082000E3
:1001F8004407F0007008860087010108F1007108C3
:10020800F2000130F0007008F5070F297708013E69
:10021800F0007008F500720808007908031D152918
:1002280016292C297808750203181B291C2931293D
:100238007008F100750820004507F2007208860072
:100248008701710881000130F1007108F507312933
:10025800F9017008F1007108F50008002000B200EB
:100268002400950196019701940194171508F03917
:100278000638950016141715171720003235240074
:1002880092002000921191112100921591152400DD
:100298009516080076080319522953295A29750812
:1002A8000319572958295A290130F5020130F0005D
:1002B8007008F900F60108002000B4003408B30003
:1002C8003308C5003208B3003308F80008002000DE
:1002D800B4003408B3003308C4003208B30033084C
:1002E800F7000800003401340234033404340534C0
:1002F80006340734FE0012001E00FE0B7F2900346E
:10030800640080010131890B8529003421000E1415
:100318008E1423008E11080020003308BF00320815
:10032800BE00080020003308C3003208C2000800DD
:1003380020003308C1003208C00008000B178B17D3
:040348000800013474
:020000040001F9
:04000E0024CFFFDE1E
:00000001FF
